:100000000C9460000C9488000C9488000C94880078
:100010000C9488000C9488000C9488000C94420F77
:100020000C9488000C9488000C9488000C94880030
:100030000C9488000C9488000C9488000C94880020
:100040000C94580B0C9488000C94400C0C94720C7B
:100050000C9488000C9488000C9488000C94880000
:100060000C9488000C948800000000080002010035
:100070000003040700000000000000000102040863
:100080001020408001020408102001020408102002
:10009000040404040404040402020202020203032E
:1000A0000303030300000000250028002B000000CC
:1000B0000000240027002A0002003B0C980C270EA9
:1000C00011241FBECFEFD8E0DEBFCDBF12E0A0E00D
:1000D000B1E0E6EEFFE102C005900D92AE32B1074D
:1000E000D9F724E0AEE2B2E001C01D92A835B20714
:1000F000E1F710E0C0E6D0E004C02197FE010E94C5
:10010000EB0FCD35D107C9F70E942E0C0C949E0F32
:100110000C940000E8E00E946C010895E7E10E9461
:100120006C010895EAE00E946C010895E1E00E94EC
:100130006C010895E3E00E946C010895E5E00E94DF
:100140006C010895E0E00E946C010895E2E00E94D5
:100150006C010895E4E00E946C010895E2E10E94C0
:100160006C010895ECE00E946C010895E6E00E94A5
:100170006C010895EEE00E946C010895E4E10E9494
:100180006C010895E0E10E946C010895E7E00E948F
:100190006C010895E9E00E946C010895EBE00E9473
:1001A0006C010895EDE00E946C010895EFE00E945B
:1001B0006C010895E1E10E946C010895E3E10E9461
:1001C0006C010895E5E10E946C010895E6E10E944A
:1001D0006C0108950F930FB70F9300E0081709F013
:1001E00002C00917D1F02F923F924F925F926F9207
:1001F0007F928F929F92AF92BF92CF92DF92EF92B7
:10020000FF921F93CF93DF93EC01E881F981ADB7A3
:10021000BEB7A083B1830F930F930F910F91FB0192
:10022000C081D181E881F981EDBFFEBFDF91CF911F
:100230001F91FF90EF90DF90CF90BF90AF909F9075
:100240008F907F906F905F904F903F902F900F9185
:100250000FBF0F91089521968A929A92AA92BA920C
:10026000CA92DA92EA92FA920A931A932197E0914B
:100270006901F0916A010080F181E02DC083D18392
:100280000895C0916B01D0916C01E881F981C08122
:10029000D181219619910991F990E990D990C9904D
:1002A000B990A99099908990219708952F903F90A7
:1002B000E7E6F1E0CDB7DEB7EDBFFEBF3F922F928C
:1002C00008952F903F90CDBFDEBF3F922F920895AB
:1002D000E0E80E946C0108952F923F924F925F9246
:1002E0006F927F922FB62F92CF93DF937E2EF8944A
:1002F000E0910001EF5FE0930001E13011F40E9412
:100300005601E0E0E0937901E72DE07849F00E94A2
:10031000B405F0917A01F17071F00E9480040BC075
:10032000E72DEC3140F4EE0FF0E0E851FE4F019084
:10033000F081E02D0995F0917901EF2FE17059F0EE
:10034000F27011F00E942B018F938F2F0E94C8032F
:100350008F910E94410120910001215020930001C2
:10036000222311F40E946101DF91CF912F902FBEC3
:100370007F906F905F904F903F902F900895CF9215
:10038000DF92EF92FF920F931F93DC01EC91DB0160
:100390002C918E2F8170C82E880FDD08EE08FF0883
:1003A0008E2F8770082E000C990BAA0BBB0BB695ED
:1003B000A79597958795DC01AE5BBD4F8C91C81AC8
:1003C000D108E108F108E670422F4170042E000CBC
:1003D000550B660B770B822F8770082E000C990B3C
:1003E000AA0BBB0BB695A79597958795DC01AE5BDD
:1003F000BD4F8C91481B510961097109822F86708C
:100400009701860101701127222733270E2B417097
:10041000552766277727482B81E090E004171507BA
:100420002607370710F080E090E01F910F91FF90B2
:10043000EF90DF90CF9008958F929F92AF92BF92EE
:10044000EF92FF920F931F93CF93DF937C014A01AA
:100450005B01B694A7949794879442305105610547
:100460007105E0F0440F551F8701040F151FE401CB
:10047000CC0FDD1FCE0DDF1DB801CE010E94BF01E4
:10048000892B61F0F8019081818128813981318344
:10049000208398838983B501A401DBCFDF91CF91BD
:1004A0001F910F91FF90EF90BF90AF909F908F9012
:1004B00008952F923F924F925F926F927F928F9208
:1004C0009F92AF92BF92CF92DF92EF92FF920F93E3
:1004D0001F93CF93DF9300D000D0CDB7DEB71C01C0
:1004E0009A01AB01FC014080042C000C5508660801
:1004F000770869017A01CC0CDD1CEE1CFF1C4C1442
:100500005D046E047F0408F441C046015701FFEF0B
:100510008F1A9F0AAF0ABF0A481459046A047B0461
:10052000B0F0B401660F771F620D731DC601880F0E
:10053000991F820D931D29833A834B835C830E940C
:10054000BF0129813A81892B11F07501640186016F
:10055000000F111F020D131D220F331F5901A20C92
:10056000B31CB801C5010E94BF01892B79F0F501C8
:1005700090818181F80120813181F50131832083CF
:10058000F80190838183A7019601B3CF0F900F905C
:100590000F900F90DF91CF911F910F91FF90EF90EF
:1005A000DF90CF90BF90AF909F908F907F906F9093
:1005B0005F904F903F902F900895E0E0F4E04081ED
:1005C0004F5F4083042E000C550B660B770BE82F12
:1005D000EE0FFF0BED53FE4F0190F081E02D2385D0
:1005E000022E000C330BF901EE5BFD4F9081915010
:1005F0009083FA01EE0FFF1FE050FC4F9170220F25
:10060000331F292B2083818380E094E00C941C020B
:10061000E0E0F4E040814F5F4083042E000C550B76
:10062000660B770BE82FEE0FFF0BE154FE4F0190A6
:10063000F081E02D9381FA01EE0FFF1FE050FC4F97
:100640009083818380E094E00C941C02CF93DF932D
:10065000A0E0B4E0EC918FEF8E0F8C931296DC91BA
:1006600012971396CC911397EE0FFF0BE050FC4FAF
:100670008081918113969C938E93129741E050E074
:1006800060E070E0CD010E9459028D2F9C2FDF9118
:10069000CF9108958091710190917201A0917301A1
:1006A000B09174018F3F2FEF9207A207B20739F084
:1006B000181619061A061B0624F081E0089580E03A
:1006C000089582E00895880F990BFC01ED53FE4FC9
:1006D0000190F081E02D0084F185E02D3097F9F054
:1006E000228121111CC021E02283DC01A154BE4FD4
:1006F0000D90BC91A02D13968C91139781838081CE
:10070000082E000C990BFC01EE5BFD4F208121505F
:1007100020832170880F991F822B13968C93089544
:10072000880F990BFC01ED53FE4F0190F081E02DF5
:100730000084F185E02D309761F02281213049F469
:1007400012822181FC01E154FE4F0190F081E02DE5
:10075000238308958091750190917601A09177018E
:10076000B0917801409171015091720160917301D3
:1007700070917401481759076A077B0741F0E091AF
:100780006F01F091700121E024830C940803089517
:10079000CF93DF93882391F0C0916901D0916A01D2
:1007A000E0916D01F0916E018481833049F081E028
:1007B0008483809171010E94080302C0C0E0D0E0F0
:1007C000E0916F01F0917001F0936E01E0936D0183
:1007D00080916B0190916C0190936A018093690103
:1007E0008091750130917601209177019091780187
:1007F000809371013093720120937301909374017F
:1008000092E094830E946303CE01DF91CF9108951B
:10081000809171010E949003E0916D01F0916E0151
:100820008281882319F085E08483089514820895D5
:10083000CF93DF93282F220F330BF901E154FE4FA2
:10084000C081D1819A81F901ED53FE4F0190F08171
:10085000E02D2485921770F4911105C095E09C83DA
:1008600091E090937A010E94DD028A818F5F8A83F2
:1008700080E001C084E0DF91CF910895E82FEE0F72
:10088000FF0BE154FE4F0190F081E02D11821082A8
:100890000C94EC0B1F93CF93DF930E942603182F29
:1008A000492F092E000C550B660B770B40937501F1
:1008B000509376016093770170937801292F220F6E
:1008C000330BF901E154FE4FC081D181D093700107
:1008D000C0936F01F901ED53FE4F208131813093B8
:1008E0006C0120936B018C81853021F4892F0E944B
:1008F0003E041B8310927A01DF91CF911F910895DE
:10090000E0917501F0917601EE0FFF1FE154FE4F6B
:100910000190F081E02D909102048381891734F4D5
:100920000E94AA030E944A0483E001C080E08093F1
:100930007901089581E0809379010C944A04CF9362
:10094000DF93C1E0D0E001C0CC0F8A95EAF781E0E7
:100950000E9418048091E6018C2319F080E00E9427
:1009600018048091E501C82359F08091B401909159
:10097000B50121E0FC012687DF91CF910C94ED04B5
:10098000DF91CF9108950E949A0681110E94BB06C3
:10099000E0916D01F0916E0180819181892B21F0B0
:1009A000809171010E949A080C94EC070E949A06AB
:1009B00081110E94BB06E0916D01F0916E01808172
:1009C0009181892B21F0809171010E949A080C94E9
:1009D000CB0781E080932E020895AF92BF92CF9211
:1009E000DF92EF92FF920F931F93CF93DF93FC015F
:1009F000A081B181AD90BC90E501AC89BD89109713
:100A000039F0428553856485758530E020E017C054
:100A1000D50155969C938E93549757969C938E939D
:100A2000569715821482138212825BC012968D91A2
:100A30009C9113973A2F2B2F009779F0DC011A968F
:100A4000CD90DD90ED90FC901D974C155D056E05E9
:100A50007F0560F7CD01A32FB22F93838283B583E7
:100A6000A483009719F0EC01FD83EC83109729F023
:100A70001396FC93EE93129705C0D5015596FC93FF
:100A8000EE935497E501AE89BF891A968D919D9199
:100A90000D90BC91A02D088919892A893B8980175E
:100AA0009107A207B30780F4041715072607370735
:100AB00028F0481759076A077B0798F4D50157961D
:100AC000FC93EE9356970DC00417150726073707BA
:100AD00040F4481759076A077B0718F4E501FF8BB4
:100AE000EE8BDF91CF911F910F91FF90EF90DF90F0
:100AF000CF90BF90AF900895CF93DF93DC01ED913D
:100B0000FC9111970190F081E02D848995891296CE
:100B1000CD91DC911397A817B90711F4D58BC48B2D
:100B200086899789A817B90711F4D78BC68B2097A8
:100B300031F014968D919C9115979D838C8314961A
:100B40000D90BC91A02D109721F01396DC93CE93BD
:100B5000129786899789892B21F484899589978BA7
:100B6000868BDF91CF910895EF92FF920F931F93A1
:100B7000CF93DF93FC0180912E02882309F4B4C047
:100B800084859585A685B7850196A11DB11D8487AD
:100B90009587A687B78740815181628173818417C9
:100BA0009507A607B70709F09FC080899189A28998
:100BB000B3890196A11DB11D44815581668177815C
:100BC000481759076A077B0718F480E090E0DC01BA
:100BD000808B918BA28BB38B148615861686178615
:100BE000C689D789209709F47FC04A855B856C85C3
:100BF0007D85481759076A077B0709F075C0CE0144
:100C0000DC011296ED90FC901397E114F10471F061
:100C1000D7011A960D911D912D913C911D970417A6
:100C200015072607370711F4C701EACF2C813D814C
:100C30002115310529F0D9011396FC92EE921297F5
:100C4000E114F10429F0D70115963C932E931497E3
:100C5000248935892C173D0711F4F58AE48AE114BB
:100C6000F10419F0F78AE68A04C024893589378BA4
:100C7000268B8F01FC0113821282EA80FB80E881BF
:100C8000F9810280F381E02DCE0109954E815F81CB
:100C900068857985411551056105710509F18A85D8
:100CA0009B85AC85BD85840F951FA61FB71FF801D6
:100CB0004481558166817781481759076A077B0708
:100CC00038F4841B950BA60BB70B0197A109B1094A
:100CD0008A879B87AC87BD87CE010E94ED0401C047
:100CE0001E86E701209749F6DF91CF911F910F9162
:100CF000FF90EF900895FC0182810C9418040E94EB
:100D00009A06809168010895809368010E949F046B
:100D10000E94E9040C949A040C94EB0BCF93C82F17
:100D20000E944A03811102C00E94280C8C2FCF918F
:100D30000C948E0080913B028130D9F08091330277
:100D400090913402A0913502B0913602892B8A2B02
:100D50008B2B79F481E040913702509138026091F9
:100D6000390270913A02452B462B472B19F480E04B
:100D7000089581E0089510923B021092370210927C
:100D800038021092390210923A02109233021092F5
:100D90003402109235021092360280912F02909107
:100DA0003002A0913102B091320280933C029093C4
:100DB0003D02A0933E02B0933F0208950E942B0C87
:100DC00080913C0290913D02A0913E02B0913F0281
:100DD0000196A11DB11D80933C0290933D02A0930A
:100DE0003E02B0933F028091370290913802A09169
:100DF0003902B0913A020196A11DB11D80933702CC
:100E000090933802A0933902B0933A0208958091EA
:100E1000370290913802A0913902B0913A020097BE
:100E2000A105B10569F140913C0250913D026091EC
:100E30003E0270913F02415051096109710940938E
:100E40003C0250933D0260933E0270933F02019733
:100E5000A109B1098093370290933802A093390217
:100E6000B0933A0280913C0290913D02A0913E02E3
:100E7000B0913F02892B8A2B8B2B11F40C94290CF7
:100E800008958091370290913802A0913902B09173
:100E90003A02892B8A2B8B2B89F480913302909113
:100EA0003402A0913502B0913602892B8A2B8B2B0C
:100EB00029F40E942B0C81E080933B0208958091DD
:100EC0003B02882321F010923B020C94290C0895D8
:100ED0000E942B0C80913C0290913D02A0913E0219
:100EE000B0913F020196A11DB11D80933C029093E9
:100EF0003D02A0933E02B0933F0280913302909155
:100F00003402A0913502B09136020196A11DB11DA7
:100F10008093330290933402A0933502B09336024B
:100F200008958091330290913402A0913502B091DE
:100F300036020097A105B10569F140913C0250913C
:100F40003D0260913E0270913F024150510961099A
:100F5000710940933C0250933D0260933E027093AE
:100F60003F020197A109B1098093330290933402A3
:100F7000A0933502B093360280913C0290913D02DD
:100F8000A0913E02B0913F02892B8A2B8B2B11F44A
:100F90000C94290C08950E949A06882311F083E18D
:100FA000089580E008951F93CF93DF931F92CDB7EC
:100FB000DEB7182F0E949A06812F0E941804909184
:100FC0007A01992321F089830E94800489810F90FE
:100FD000DF91CF911F910895CF93DF931F92CDB7EB
:100FE000DEB70E949A06882311F083E101C080E0F9
:100FF000E0916D01F0916E0192819150928389830D
:101000000E94080491E0909379010E944A0489812A
:101010000F90DF91CF9108951F93CF93DF931F928D
:10102000CDB7DEB7182F0E949A06E0916D01F091BE
:101030006E01928191509283812F0E941804811138
:101040000AC089830E94080491E0909379010E946C
:101050004A04898107C0E0916D01F0916E0192818F
:101060009F5F92830F90DF91CF911F910895CF934F
:101070000E949A06882311F0C3E101C0C0E080916C
:1010800071010E9490030E948004809171019091EF
:101090007201A0917301B09174014091750150915A
:1010A0007601609177017091780184179507A60702
:1010B000B70711F40E9463038C2FCF910895CF934B
:1010C000DF93EC010E949A06882311F083E101C0AE
:1010D00080E04091710150917201609173017091B3
:1010E0007401141615061606170614F0488303C07B
:1010F0009091AD019883DF91CF9108950F931F9345
:10110000CF93C82F8B010E949A06882311F083E1A8
:1011100001C080E0EC2FEE0FFF0BE154FE4F019079
:10112000F081E02D94819370F8019083CF911F910D
:101130000F910895880F990BFC01E154FE4FA08197
:10114000B181ED91FC911197309769F01D921C923D
:101150002091AD0193818481228314821382E92F2F
:10116000F82F3097B9F70895CF93C82F0E949A06A9
:10117000882311F083E101C080E0EC2FF0E0EE0F56
:10118000FF1FED51FE4FA081B18190917101129628
:101190009C931297E0916D01F0916E012081318155
:1011A00014963C932E931397B183A0839381119649
:1011B0009C9311972C9193819595921774F4022E1C
:1011C000000C330BD901AE5BBD4F9C9191509C93A9
:1011D0009170220F331F292B2383CF9108951F93E2
:1011E000CF93DF931F92CDB7DEB7182F0E949A06D8
:1011F000882311F083E101C080E0E12FF0E0EE0FE1
:10120000FF1FED51FE4F0190F081E02DA0916D0187
:10121000B0916E01918113969C9313972381348131
:101220002D933C93148213829091AD019283898314
:101230000E94800489810F90DF91CF911F910895C2
:10124000DC01ED91FC9184819581DC01ED91FC91B3
:1012500009941F93CF93DF93182FEB010E949A06F6
:10126000882311F083E101C080E0E12FF0E0EE0F70
:10127000FF1FEC54FE4F0190F081E02D0190F081B2
:10128000E02D0190F081E02D4081518162817381D8
:101290004C835D836E837F83448155816681778132
:1012A000488359836A837B83408551856285738532
:1012B000488759876A877B87DF91CF911F9108956F
:1012C0008F929F92AF92BF92CF92DF92EF92FF9256
:1012D0000F931F93CF93C82F8B010E949A068823E8
:1012E00011F083E101C080E0EC2FF0E0EE0FFF1F72
:1012F000EC54FE4F0190F081E02D9685913029F558
:1013000042855385648575850190F081E02D0190BB
:10131000F081E02DC088D188E288F3884C155D0506
:101320006E057F0540F484809580A680B780480DC7
:10133000591D6A1D7B1D4C195D096E097F09F80155
:10134000408351836283738301C085E0CF911F91F5
:101350000F91FF90EF90DF90CF90BF90AF909F9054
:101360008F9008958F929F92AF92BF92CF92DF920B
:10137000EF92FF920F931F93CF93DF9300D000D093
:10138000CDB7DEB7F82E4801590149835A836B83E4
:101390007C830E949A0649815A816B817C818823D3
:1013A00011F013E101C010E0EF2DF0E0EE0FFF1F90
:1013B000EC54FE4F0190F081E02D8685811130C004
:1013C000A081B1810D90BC91A02D5096CD90DD9063
:1013D000ED90FC9053974C0D5D1D6E1D7F1D149676
:1013E0008D919D910D90BC91A02D84179507A60716
:1013F000B70740F4481B590B6A0B7B0B415051094E
:10140000610971094287538764877587868297824D
:10141000A086B18681E08687CF010E94ED0401C0DD
:1014200017E0812F0F900F900F900F90DF91CF91C9
:101430001F910F91FF90EF90DF90CF90BF90AF90F2
:101440009F908F900895BF92CF92DF92EF92FF927C
:101450000F931F93CF93DF9300D000D0CDB7DEB7AB
:10146000B82E6801790149835A836B837C830E947B
:101470009A0649815A816B817C81882311F013E19E
:1014800001C010E0EB2DF0E0EE0FFF1FEC54FE4F1B
:101490000190F081E02D868581110EC0428753872F
:1014A00064877587C682D782E086F18681E0868769
:1014B000CF010E94ED0401C017E0812F0F900F9023
:1014C0000F900F90DF91CF911F910F91FF90EF90B0
:1014D000DF90CF90BF9008950F931F93CF93DF932A
:1014E000C82F0E949A06882311F0D3E101C0D0E0F2
:1014F000EC2FF0E0EE0FFF1FEC54FE4F0081118146
:10150000F8018685813031F4C8010E947C05F8011C
:10151000168601C0D5E08D2FDF91CF911F910F91DD
:10152000089526E040E052EC61E070E084E592E04E
:101530000E94800D61E08DE00C94EC0A80914002E5
:10154000909141020196909341028093400280FF66
:1015500002C061E001C060E08DE00E94280B609154
:101560004002709141024AE050E084E592E00E941E
:10157000060F6EEA71E084E592E00C948A0E8FE823
:1015800091E00C946801833081F028F4813099F067
:101590008230A1F008958730A9F08830B9F0843006
:1015A000D1F4809180008F7D03C0809180008F777F
:1015B00080938000089584B58F7702C084B58F7DB5
:1015C00084BD08958091B0008F7703C08091B000F2
:1015D0008F7D8093B0000895CF93DF9390E0FC015E
:1015E000E458FF4F2491FC01E057FF4F849188237A
:1015F00061F190E0880F991FFC01E255FF4FC59102
:10160000D491FC01EC55FF4FA591B491611109C033
:101610009FB7F8948881209582238883EC912E23AC
:101620000BC0623061F49FB7F8943881822F8095A7
:1016300083238883EC912E2B2C939FBF06C08FB7FA
:10164000F894E8812E2B28838FBFDF91CF910895E6
:101650001F93CF93DF93282F30E0F901E859FF4F14
:101660008491F901E458FF4FD491F901E057FF4FFD
:10167000C491CC23C9F0162F81110E94C30AEC2F0C
:10168000F0E0EE0FFF1FEC55FF4FA591B4918FB71F
:10169000F894111105C09C91ED2FE095E92302C04B
:1016A000EC91ED2BEC938FBFDF91CF911F910895BB
:1016B0001F920F920FB60F9211242F933F934F93C7
:1016C0005F936F937F938F939F93AF93BF93EF93AA
:1016D000FF9380914B0290914C02A0914D02B091EA
:1016E0004E0230914A0223E0230F2D3720F4019659
:1016F000A11DB11D05C026E8230F0296A11DB11D35
:1017000020934A0280934B0290934C02A0934D0287
:10171000B0934E0280914F0290915002A0915102DD
:10172000B09152020196A11DB11D80934F0290937A
:101730005002A0935102B09352020E94BF0AFF913F
:10174000EF91BF91AF919F918F917F916F915F9139
:101750004F913F912F910F900FBE0F901F901895B2
:1017600084B5826084BD84B5816084BD85B58260A6
:1017700085BD85B5816085BDEEE6F0E08081816044
:101780008083E1E8F0E01082808182608083808144
:1017900081608083E0E8F0E0808181608083E1EB1C
:1017A000F0E0808184608083E0EBF0E08081816004
:1017B0008083EAE7F0E080818460808380818260BA
:1017C00080838081816080838081806880831092A3
:1017D000C1000895FFCFFFCFCF93DF93880F990B00
:1017E000FC01ED53FE4FC081D181AC81BD811197C9
:1017F0008A819B81A80FB91F2D85CD010197FD011D
:101800003297223019F42EEA30E002C02AEC30E0A0
:101810002C93DC013C939E818F819083DF018E931A
:10182000CF0107971E92A817B907E1F780E8DF01FB
:1018300018978C93CF0144971E92A817B907E1F728
:10184000A881B9817597ED93FC93DF91CF910895AD
:10185000089578940895F894089508950E94B00B1F
:101860000E942D0C0E94910A809153020E948E06C4
:1018700080E090E008958091E701809353020895FD
:101880001F920F920FB60F9211242F938F939F9355
:10189000EF93FF93E0916402F09165028081E09103
:1018A0006A02F0916B0282FD12C0908180916D02FC
:1018B0008F5F8F7320916E02821751F0E0916D025D
:1018C000F0E0EC5AFD4F958F80936D0201C080814E
:1018D000FF91EF919F918F912F910F900FBE0F90DD
:1018E0001F9018951F920F920FB60F9211242F93ED
:1018F0003F934F935F936F937F938F939F93AF9398
:10190000BF93EF93FF9384E592E00E94F50CFF9163
:10191000EF91BF91AF919F918F917F916F915F9167
:101920004F913F912F910F900FBE0F901F901895E0
:10193000E4E5F2E01382128288EE93E0A0E0B0E0EA
:1019400084839583A683B7838CE192E0918380831F
:1019500085EC90E09587848784EC90E09787868774
:1019600080EC90E0918B808B81EC90E0938B828B6C
:1019700082EC90E0958B848B86EC90E0978B868B45
:10198000118E128E138E148E0895FC01918D228D6E
:10199000892F90E0805C9F4F821B910960E470E08A
:1019A0000E94B50F0895FC01918D828D981731F03A
:1019B000828DE80FF11D858D90E008958FEF9FEFE8
:1019C0000895FC01918D828D981761F0828DDF0161
:1019D000A80FB11D5D968C91928D9F5F9F73928F22
:1019E00090E008958FEF9FEF0895FC01848DDF0153
:1019F000A80FB11DA35ABF4F2C91848D90E0019682
:101A00008F739927848FA689B7892C93A089B18970
:101A10008C9180648C93938D848D981306C002887A
:101A2000F389E02D80818F7D80830895CF93DF93AC
:101A3000EC01888D8823C9F0EA89FB89808185FDC6
:101A400005C0A889B9898C9186FD0FC00FB607FC27
:101A5000F5CF808185FFF2CFA889B9898C9185FF68
:101A6000EDCFCE010E94F50CE7CFDF91CF91089525
:101A7000EF92FF920F931F93CF93DF93EC019B8D17
:101A80008C8D981305C0E889F989808185FD27C070
:101A9000F62E0B8D10E00F5F1F4F0F731127E02EF6
:101AA0008C8DE8120CC00FB607FCFACFE889F989D3
:101AB000808185FFF5CFCE010E94F50CF1CF8B8D93
:101AC000FE01E80FF11DE35AFF4FF0820B8FEA8908
:101AD000FB8980818062808381E0888F08C0EE89E5
:101AE000FF896083E889F98980818064808381E04F
:101AF00090E0DF91CF911F910F91FF90EF900895AB
:101B0000CF92DF92EF92FF921F93CF93DF93EC017E
:101B10006A017B01122FE889F98982E080834115EF
:101B2000514E61057105B1F060E079E08DE390E020
:101B3000A70196010E94C90FDA01C9010197A10905
:101B4000B109B695A79597958795AC01411580E1A8
:101B50005807A8F0E889F989108260E874E88EE1F6
:101B600090E0A70196010E94C90FBA01A901415056
:101B70005109610971097695679557954795EC85E7
:101B8000FD855083EE85FF854083188EEC89FD89A5
:101B90001083EA89FB89808180618083EA89FB89DF
:101BA000808188608083EA89FB8980818068808366
:101BB000EA89FB8980818F7D8083DF91CF911F919E
:101BC000FF90EF90DF90CF9008958F929F92AF9209
:101BD000BF92CF92DF92EF92FF920F931F93CF931A
:101BE000DF937C018B016C0182E0C80ED11C4701A0
:101BF000E5E08E0E911CC0E0D0E0F60161916F012E
:101C00004AE050E0C8010E94FF0E5C016EE2C8018C
:101C10000E946F0E8A0D9B1DC80FD91FC814D904CE
:101C200061F74AE050E0F7016581C8010E94FF0EAC
:101C30008C0F9D1FDF91CF911F910F91FF90EF901F
:101C4000DF90CF90BF90AF909F908F900895E1EF7D
:101C5000F2E08CE292E091838083128213821482FC
:101C600015820895CF92DF92EF92FF920F931F9308
:101C7000CF93DF936C01EB017B01E40EF51E00E0D6
:101C800010E0CE15DF0561F06991D601ED91FC9170
:101C90000190F081E02DC6010995080F191FF1CFC1
:101CA000C801DF91CF911F910F91FF90EF90DF90CE
:101CB000CF9008956115710579F0FB010190002026
:101CC000E9F73197AF01461B570BDC01ED91FC9111
:101CD0000280F381E02D099480E090E00895DC011A
:101CE000ED91FC910190F081E02D09940F931F93E9
:101CF000CF93DF93EC016DE00E946F0E8C016AE0E0
:101D0000CE010E946F0E800F911FDF91CF911F9126
:101D10000F9108950F931F93CF93DF93EC010E94CF
:101D20005A0E8C01CE010E94760E800F911FDF911A
:101D3000CF911F910F9108958F929F92AF92BF9272
:101D4000CF92DF92EF92FF920F931F93CF93DF9387
:101D5000CDB7DEB7A1970FB6F894DEBF0FBECDBFEB
:101D60006C01142FE52FCB01022F19A2223008F4A9
:101D70000AE07E0121E2E20EF11C802E912CA12CC2
:101D8000B12C612F7E2FA50194010E94C90F029FE3
:101D90001019112481E0E81AF1081A3014F4105DCA
:101DA00001C0195CF7011083122FE32FCA01232B06
:101DB000242B252B31F7B701C6010E945A0EA1969C
:101DC0000FB6F894DEBF0FBECDBFDF91CF911F914C
:101DD0000F91FF90EF90DF90CF90BF90AF909F90CA
:101DE0008F9008952115310541F4DC01ED91FC91AE
:101DF0000190F081E02D642F09940C949C0E9A01BF
:101E0000462F50E060E070E00C94F20E9A01AB01B6
:101E100060E070E00C94F20E813039F018F08230FE
:101E200051F0089510926E00089580916F008D7F9B
:101E300080936F000895809170008D7F8093700073
:101E400081E08093B0008091B100887F84608093AE
:101E5000B1001092B3000895CF93C82F8091AC01C8
:101E60008C1307C0E8EBF0E0E4918FEF8093AC01B6
:101E700001C0EFEF8E2F0E940C0F60E08C2FCF91EE
:101E80000C94280B1F920F920FB60F9211242F93D0
:101E90003F934F935F936F937F938F939F93AF93F2
:101EA000BF93EF93FF938091FA029091FB02A09170
:101EB000FC02B091FD02892B8A2B8B2B51F1809172
:101EC000F702E091F802F091F9029081892780836E
:101ED0008091FA029091FB02A091FC02B091FD0268
:101EE000181619061A061B06C4F48091FA0290917E
:101EF000FB02A091FC02B091FD020197A109B1097A
:101F00008093FA029093FB02A093FC02B093FD022F
:101F100004C08091AC010E942C0FFF91EF91BF9102
:101F2000AF919F918F917F916F915F914F913F9171
:101F30002F910F900FBE0F901F901895F8940C944E
:101F4000F10FAA1BBB1B51E107C0AA1FBB1FA6179D
:101F5000B70710F0A61BB70B881F991F5A95A9F752
:101F600080959095BC01CD01089597FB072E16F43E
:101F7000009407D077FD09D00E94A10F07FC05D07F
:101F80003EF4909581959F4F0895709561957F4F90
:101F90000895A1E21A2EAA1BBB1BFD010DC0AA1FAA
:101FA000BB1FEE1FFF1FA217B307E407F50720F0C2
:101FB000A21BB30BE40BF50B661F771F881F991F3D
:101FC0001A9469F760957095809590959B01AC0186
:101FD000BD01CF010895EE0FFF1F0590F491E02D94
:061FE0000994F894FFCF04
:101FE60000000000000000000000000000000000EB
:101FF60000000000000000000000000000000000DB
:1020060000000000000000000000000000000000CA
:1020160000000000000000000000000000000000BA
:1020260000000000000000000000000000000000AA
:10203600000000000000000000000000000000009A
:102046000000000000000000FF0000D50100004570
:1020560002FFFFFFFFFFFFFFFF0000B601000000C9
:1020660000E8030000E80300000200000001000190
:10207600000000FFFF00000100000000000000005B
:10208600000000000000000200FF0000FFFF2064C7
:102096006F6E65007B018F012009BC017B06008AFB
:1020A600014502C701D501FE02000300019E0A0098
:1020B6000000010100060408045000EA0B000001BC
:1020C600000100A701010000DE065F079107410736
:1020D60068070707EC077E087F06C3048C06B4086A
:1020E600D307EF080C0829095F086009D604B2096E
:1020F6003708230A6C0A840600000000380D320EE9
:0E210600C50CE10CD30C160D00000000E50D19
:00000001FF
